{
  "contractName": "Voting",
  "abi": [
    {
      "anonymous": false,
      "inputs": [
        {
          "indexed": true,
          "internalType": "address",
          "name": "previousOwner",
          "type": "address"
        },
        {
          "indexed": true,
          "internalType": "address",
          "name": "newOwner",
          "type": "address"
        }
      ],
      "name": "OwnershipTransferred",
      "type": "event"
    },
    {
      "anonymous": false,
      "inputs": [
        {
          "indexed": false,
          "internalType": "uint256",
          "name": "proposalId",
          "type": "uint256"
        }
      ],
      "name": "ProposalRegistered",
      "type": "event"
    },
    {
      "anonymous": false,
      "inputs": [
        {
          "indexed": false,
          "internalType": "address",
          "name": "voter",
          "type": "address"
        },
        {
          "indexed": false,
          "internalType": "uint256",
          "name": "proposalId",
          "type": "uint256"
        }
      ],
      "name": "Voted",
      "type": "event"
    },
    {
      "anonymous": false,
      "inputs": [
        {
          "indexed": false,
          "internalType": "address",
          "name": "voterAddress",
          "type": "address"
        }
      ],
      "name": "VoterRegistered",
      "type": "event"
    },
    {
      "anonymous": false,
      "inputs": [
        {
          "indexed": false,
          "internalType": "enum Voting.WorkflowStatus",
          "name": "previousStatus",
          "type": "uint8"
        },
        {
          "indexed": false,
          "internalType": "enum Voting.WorkflowStatus",
          "name": "newStatus",
          "type": "uint8"
        }
      ],
      "name": "WorkflowStatusChange",
      "type": "event"
    },
    {
      "inputs": [],
      "name": "owner",
      "outputs": [
        {
          "internalType": "address",
          "name": "",
          "type": "address"
        }
      ],
      "stateMutability": "view",
      "type": "function",
      "constant": true
    },
    {
      "inputs": [
        {
          "internalType": "uint256",
          "name": "",
          "type": "uint256"
        }
      ],
      "name": "proposalsArray",
      "outputs": [
        {
          "internalType": "string",
          "name": "description",
          "type": "string"
        },
        {
          "internalType": "uint256",
          "name": "voteCount",
          "type": "uint256"
        }
      ],
      "stateMutability": "view",
      "type": "function",
      "constant": true
    },
    {
      "inputs": [],
      "name": "renounceOwnership",
      "outputs": [],
      "stateMutability": "nonpayable",
      "type": "function"
    },
    {
      "inputs": [
        {
          "internalType": "address",
          "name": "newOwner",
          "type": "address"
        }
      ],
      "name": "transferOwnership",
      "outputs": [],
      "stateMutability": "nonpayable",
      "type": "function"
    },
    {
      "inputs": [],
      "name": "workflowStatus",
      "outputs": [
        {
          "internalType": "enum Voting.WorkflowStatus",
          "name": "",
          "type": "uint8"
        }
      ],
      "stateMutability": "view",
      "type": "function",
      "constant": true
    },
    {
      "inputs": [
        {
          "internalType": "address",
          "name": "_addr",
          "type": "address"
        }
      ],
      "name": "getVoter",
      "outputs": [
        {
          "components": [
            {
              "internalType": "bool",
              "name": "isRegistered",
              "type": "bool"
            },
            {
              "internalType": "bool",
              "name": "hasVoted",
              "type": "bool"
            },
            {
              "internalType": "uint256",
              "name": "votedProposalId",
              "type": "uint256"
            }
          ],
          "internalType": "struct Voting.Voter",
          "name": "",
          "type": "tuple"
        }
      ],
      "stateMutability": "view",
      "type": "function",
      "constant": true
    },
    {
      "inputs": [
        {
          "internalType": "uint256",
          "name": "_id",
          "type": "uint256"
        }
      ],
      "name": "getOneProposal",
      "outputs": [
        {
          "components": [
            {
              "internalType": "string",
              "name": "description",
              "type": "string"
            },
            {
              "internalType": "uint256",
              "name": "voteCount",
              "type": "uint256"
            }
          ],
          "internalType": "struct Voting.Proposal",
          "name": "",
          "type": "tuple"
        }
      ],
      "stateMutability": "view",
      "type": "function",
      "constant": true
    },
    {
      "inputs": [],
      "name": "getProposals",
      "outputs": [
        {
          "components": [
            {
              "internalType": "string",
              "name": "description",
              "type": "string"
            },
            {
              "internalType": "uint256",
              "name": "voteCount",
              "type": "uint256"
            }
          ],
          "internalType": "struct Voting.Proposal[]",
          "name": "",
          "type": "tuple[]"
        }
      ],
      "stateMutability": "view",
      "type": "function",
      "constant": true
    },
    {
      "inputs": [],
      "name": "getWhitelist",
      "outputs": [
        {
          "internalType": "address[]",
          "name": "",
          "type": "address[]"
        }
      ],
      "stateMutability": "view",
      "type": "function",
      "constant": true
    },
    {
      "inputs": [],
      "name": "getWinners",
      "outputs": [
        {
          "components": [
            {
              "internalType": "string",
              "name": "description",
              "type": "string"
            },
            {
              "internalType": "uint256",
              "name": "voteCount",
              "type": "uint256"
            }
          ],
          "internalType": "struct Voting.Proposal[]",
          "name": "",
          "type": "tuple[]"
        }
      ],
      "stateMutability": "view",
      "type": "function",
      "constant": true
    },
    {
      "inputs": [],
      "name": "getWinner",
      "outputs": [
        {
          "components": [
            {
              "internalType": "string",
              "name": "description",
              "type": "string"
            },
            {
              "internalType": "uint256",
              "name": "voteCount",
              "type": "uint256"
            }
          ],
          "internalType": "struct Voting.Proposal",
          "name": "",
          "type": "tuple"
        }
      ],
      "stateMutability": "view",
      "type": "function",
      "constant": true
    },
    {
      "inputs": [
        {
          "internalType": "address",
          "name": "_addr",
          "type": "address"
        }
      ],
      "name": "addVoter",
      "outputs": [],
      "stateMutability": "nonpayable",
      "type": "function"
    },
    {
      "inputs": [
        {
          "internalType": "string",
          "name": "_desc",
          "type": "string"
        }
      ],
      "name": "addProposal",
      "outputs": [],
      "stateMutability": "nonpayable",
      "type": "function"
    },
    {
      "inputs": [
        {
          "internalType": "uint256",
          "name": "_id",
          "type": "uint256"
        }
      ],
      "name": "setVote",
      "outputs": [],
      "stateMutability": "nonpayable",
      "type": "function"
    },
    {
      "inputs": [],
      "name": "startProposalsRegistering",
      "outputs": [],
      "stateMutability": "nonpayable",
      "type": "function"
    },
    {
      "inputs": [],
      "name": "endProposalsRegistering",
      "outputs": [],
      "stateMutability": "nonpayable",
      "type": "function"
    },
    {
      "inputs": [],
      "name": "startVotingSession",
      "outputs": [],
      "stateMutability": "nonpayable",
      "type": "function"
    },
    {
      "inputs": [],
      "name": "endVotingSession",
      "outputs": [],
      "stateMutability": "nonpayable",
      "type": "function"
    },
    {
      "inputs": [],
      "name": "tallyVotesDraw",
      "outputs": [],
      "stateMutability": "nonpayable",
      "type": "function"
    },
    {
      "inputs": [],
      "name": "tallyVotes",
      "outputs": [],
      "stateMutability": "nonpayable",
      "type": "function"
    }
  ],
  "bytecode": "0x60806040523480156200001157600080fd5b5062000032620000266200003860201b60201c565b6200004060201b60201c565b62000104565b600033905090565b60008060009054906101000a900473ffffffffffffffffffffffffffffffffffffffff169050816000806101000a81548173ffffffffffffffffffffffffffffffffffffffff021916908373ffffffffffffffffffffffffffffffffffffffff1602179055508173ffffffffffffffffffffffffffffffffffffffff168173ffffffffffffffffffffffffffffffffffffffff167f8be0079c531659141344cd1fd0a4f28419497f9722a3daafe3b4186f6b6457e060405160405180910390a35050565b6131c580620001146000396000f3fe608060405234801561001057600080fd5b506004361061012c5760003560e01c8063a7bfab16116100ad578063df15c37e11610071578063df15c37e1461029b578063ee74c678146102b9578063f2fde38b146102c3578063f4ab9adf146102df578063f86c6779146102fb5761012c565b8063a7bfab161461022f578063c7038a4e14610239578063c88af42f14610243578063d01f63f51461024d578063d4f50f981461026b5761012c565b8063715018a6116100f4578063715018a61461019b5780638da5cb5b146101a55780638e7ea5b2146101c3578063a1edffa2146101e1578063a2788cce146101ff5761012c565b8063230796ae146101315780632fdae3c51461014d578063378a2178146101695780633beee92e1461017357806362564c481461017d575b600080fd5b61014b600480360381019061014691906120ff565b61032c565b005b61016760048036038101906101629190612272565b610629565b005b61017161086d565b005b61017b610a4e565b005b610185610db2565b6040516101929190612451565b60405180910390f35b6101a3610ead565b005b6101ad610f35565b6040516101ba91906124b4565b60405180910390f35b6101cb610f5e565b6040516101d8919061250c565b60405180910390f35b6101e96110ab565b6040516101f691906125a5565b60405180910390f35b610219600480360381019061021491906120ff565b6110be565b604051610226919061250c565b60405180910390f35b610237611196565b005b6102416112ef565b005b61024b611449565b005b6102556115a3565b604051610262919061267e565b60405180910390f35b610285600480360381019061028091906126cc565b611631565b6040516102929190612756565b60405180910390f35b6102a3611759565b6040516102b09190612451565b60405180910390f35b6102c16118c9565b005b6102dd60048036038101906102d891906126cc565b611a23565b005b6102f960048036038101906102f491906126cc565b611b1b565b005b610315600480360381019061031091906120ff565b611d9c565b6040516103239291906127ca565b60405180910390f35b600660003373ffffffffffffffffffffffffffffffffffffffff1673ffffffffffffffffffffffffffffffffffffffff16815260200190815260200160002060000160009054906101000a900460ff166103bb576040517f08c379a00000000000000000000000000000000000000000000000000000000081526004016103b290612846565b60405180910390fd5b600360058111156103cf576103ce61252e565b5b600460009054906101000a900460ff1660058111156103f1576103f061252e565b5b14610431576040517f08c379a0000000000000000000000000000000000000000000000000000000008152600401610428906128d8565b60405180910390fd5b60011515600660003373ffffffffffffffffffffffffffffffffffffffff1673ffffffffffffffffffffffffffffffffffffffff16815260200190815260200160002060000160019054906101000a900460ff16151514156104c8576040517f08c379a00000000000000000000000000000000000000000000000000000000081526004016104bf90612944565b60405180910390fd5b600580549050811115610510576040517f08c379a0000000000000000000000000000000000000000000000000000000008152600401610507906129b0565b60405180910390fd5b80600660003373ffffffffffffffffffffffffffffffffffffffff1673ffffffffffffffffffffffffffffffffffffffff168152602001908152602001600020600101819055506001600660003373ffffffffffffffffffffffffffffffffffffffff1673ffffffffffffffffffffffffffffffffffffffff16815260200190815260200160002060000160016101000a81548160ff021916908315150217905550600581815481106105c6576105c56129d0565b5b906000526020600020906002020160010160008154809291906105e890612a2e565b91905055507f4d99b957a2bc29a30ebd96a7be8e68fe50a3c701db28a91436490b7d53870ca4338260405161061e929190612a77565b60405180910390a150565b600660003373ffffffffffffffffffffffffffffffffffffffff1673ffffffffffffffffffffffffffffffffffffffff16815260200190815260200160002060000160009054906101000a900460ff166106b8576040517f08c379a00000000000000000000000000000000000000000000000000000000081526004016106af90612846565b60405180910390fd5b600160058111156106cc576106cb61252e565b5b600460009054906101000a900460ff1660058111156106ee576106ed61252e565b5b1461072e576040517f08c379a000000000000000000000000000000000000000000000000000000000815260040161072590612aec565b60405180910390fd5b60405160200161073d90612b32565b60405160208183030381529060405280519060200120816040516020016107649190612b52565b6040516020818303038152906040528051906020012014156107bb576040517f08c379a00000000000000000000000000000000000000000000000000000000081526004016107b290612be6565b60405180910390fd5b6107c3611f24565b81816000018190525060058190806001815401808255809150506001900390600052602060002090600202016000909190919091506000820151816000019080519060200190610814929190611f3e565b506020820151816001015550507f92e393e9b54e2f801d3ea4beb0c5e71a21cc34a5d34b77d0fb8a3aa1650dc18f60016005805490506108549190612c06565b6040516108619190612c3a565b60405180910390a15050565b610875611e58565b73ffffffffffffffffffffffffffffffffffffffff16610893610f35565b73ffffffffffffffffffffffffffffffffffffffff16146108e9576040517f08c379a00000000000000000000000000000000000000000000000000000000081526004016108e090612ca1565b60405180910390fd5b600460058111156108fd576108fc61252e565b5b600460009054906101000a900460ff16600581111561091f5761091e61252e565b5b1461095f576040517f08c379a000000000000000000000000000000000000000000000000000000000815260040161095690612d33565b60405180910390fd5b600080600090505b6005805490508110156109dd5760058281548110610988576109876129d0565b5b906000526020600020906002020160010154600582815481106109ae576109ad6129d0565b5b90600052602060002090600202016001015411156109ca578091505b80806109d590612a2e565b915050610967565b50806003819055506005600460006101000a81548160ff02191690836005811115610a0b57610a0a61252e565b5b02179055507f0a97a4ee45751e2abf3e4fc8946939630b11b371ea8ae39ccdc3056e98f5cc3f60046005604051610a43929190612d53565b60405180910390a150565b610a56611e58565b73ffffffffffffffffffffffffffffffffffffffff16610a74610f35565b73ffffffffffffffffffffffffffffffffffffffff1614610aca576040517f08c379a0000000000000000000000000000000000000000000000000000000008152600401610ac190612ca1565b60405180910390fd5b60046005811115610ade57610add61252e565b5b600460009054906101000a900460ff166005811115610b0057610aff61252e565b5b14610b40576040517f08c379a0000000000000000000000000000000000000000000000000000000008152600401610b3790612d33565b60405180910390fd5b6000610b4a611fc4565b600080600090505b600580549050811015610c57576005821015610c44578360058281548110610b7d57610b7c6129d0565b5b9060005260206000209060020201600101541415610bc15780838360058110610ba957610ba86129d0565b5b6020020181815250508180610bbd90612a2e565b9250505b8360058281548110610bd657610bd56129d0565b5b9060005260206000209060020201600101541115610c4357610bf6611fc4565b92508083600060058110610c0d57610c0c6129d0565b5b60200201818152505060058181548110610c2a57610c296129d0565b5b9060005260206000209060020201600101549350600191505b5b8080610c4f90612a2e565b915050610b52565b5060005b81811015610d46576001838260058110610c7857610c776129d0565b5b6020020151908060018154018082558091505060019003906000526020600020016000909190919091505560026005848360058110610cba57610cb96129d0565b5b602002015181548110610cd057610ccf6129d0565b5b906000526020600020906002020190806001815401808255809150506001900390600052602060002090600202016000909190919091506000820181600001908054610d1b90612dab565b610d26929190611fe6565b506001820154816001015550508080610d3e90612a2e565b915050610c5b565b506005600460006101000a81548160ff02191690836005811115610d6d57610d6c61252e565b5b02179055507f0a97a4ee45751e2abf3e4fc8946939630b11b371ea8ae39ccdc3056e98f5cc3f60046005604051610da5929190612d53565b60405180910390a1505050565b60606005805480602002602001604051908101604052809291908181526020016000905b82821015610ea45783829060005260206000209060020201604051806040016040529081600082018054610e0990612dab565b80601f0160208091040260200160405190810160405280929190818152602001828054610e3590612dab565b8015610e825780601f10610e5757610100808354040283529160200191610e82565b820191906000526020600020905b815481529060010190602001808311610e6557829003601f168201915b5050505050815260200160018201548152505081526020019060010190610dd6565b50505050905090565b610eb5611e58565b73ffffffffffffffffffffffffffffffffffffffff16610ed3610f35565b73ffffffffffffffffffffffffffffffffffffffff1614610f29576040517f08c379a0000000000000000000000000000000000000000000000000000000008152600401610f2090612ca1565b60405180910390fd5b610f336000611e60565b565b60008060009054906101000a900473ffffffffffffffffffffffffffffffffffffffff16905090565b610f66611f24565b600580811115610f7957610f7861252e565b5b600460009054906101000a900460ff166005811115610f9b57610f9a61252e565b5b14610fdb576040517f08c379a0000000000000000000000000000000000000000000000000000000008152600401610fd290612e29565b60405180910390fd5b600560035481548110610ff157610ff06129d0565b5b906000526020600020906002020160405180604001604052908160008201805461101a90612dab565b80601f016020809104026020016040519081016040528092919081815260200182805461104690612dab565b80156110935780601f1061106857610100808354040283529160200191611093565b820191906000526020600020905b81548152906001019060200180831161107657829003601f168201915b50505050508152602001600182015481525050905090565b600460009054906101000a900460ff1681565b6110c6611f24565b600582815481106110da576110d96129d0565b5b906000526020600020906002020160405180604001604052908160008201805461110390612dab565b80601f016020809104026020016040519081016040528092919081815260200182805461112f90612dab565b801561117c5780601f106111515761010080835404028352916020019161117c565b820191906000526020600020905b81548152906001019060200180831161115f57829003601f168201915b505050505081526020016001820154815250509050919050565b61119e611e58565b73ffffffffffffffffffffffffffffffffffffffff166111bc610f35565b73ffffffffffffffffffffffffffffffffffffffff1614611212576040517f08c379a000000000000000000000000000000000000000000000000000000000815260040161120990612ca1565b60405180910390fd5b600360058111156112265761122561252e565b5b600460009054906101000a900460ff1660058111156112485761124761252e565b5b14611288576040517f08c379a000000000000000000000000000000000000000000000000000000000815260040161127f906128d8565b60405180910390fd5b60048060006101000a81548160ff021916908360058111156112ad576112ac61252e565b5b02179055507f0a97a4ee45751e2abf3e4fc8946939630b11b371ea8ae39ccdc3056e98f5cc3f600360046040516112e5929190612d53565b60405180910390a1565b6112f7611e58565b73ffffffffffffffffffffffffffffffffffffffff16611315610f35565b73ffffffffffffffffffffffffffffffffffffffff161461136b576040517f08c379a000000000000000000000000000000000000000000000000000000000815260040161136290612ca1565b60405180910390fd5b6000600581111561137f5761137e61252e565b5b600460009054906101000a900460ff1660058111156113a1576113a061252e565b5b146113e1576040517f08c379a00000000000000000000000000000000000000000000000000000000081526004016113d890612ebb565b60405180910390fd5b6001600460006101000a81548160ff021916908360058111156114075761140661252e565b5b02179055507f0a97a4ee45751e2abf3e4fc8946939630b11b371ea8ae39ccdc3056e98f5cc3f6000600160405161143f929190612d53565b60405180910390a1565b611451611e58565b73ffffffffffffffffffffffffffffffffffffffff1661146f610f35565b73ffffffffffffffffffffffffffffffffffffffff16146114c5576040517f08c379a00000000000000000000000000000000000000000000000000000000081526004016114bc90612ca1565b60405180910390fd5b600160058111156114d9576114d861252e565b5b600460009054906101000a900460ff1660058111156114fb576114fa61252e565b5b1461153b576040517f08c379a000000000000000000000000000000000000000000000000000000000815260040161153290612f4d565b60405180910390fd5b6002600460006101000a81548160ff021916908360058111156115615761156061252e565b5b02179055507f0a97a4ee45751e2abf3e4fc8946939630b11b371ea8ae39ccdc3056e98f5cc3f60016002604051611599929190612d53565b60405180910390a1565b6060600780548060200260200160405190810160405280929190818152602001828054801561162757602002820191906000526020600020905b8160009054906101000a900473ffffffffffffffffffffffffffffffffffffffff1673ffffffffffffffffffffffffffffffffffffffff16815260200190600101908083116115dd575b5050505050905090565b611639612073565b600660003373ffffffffffffffffffffffffffffffffffffffff1673ffffffffffffffffffffffffffffffffffffffff16815260200190815260200160002060000160009054906101000a900460ff166116c8576040517f08c379a00000000000000000000000000000000000000000000000000000000081526004016116bf90612846565b60405180910390fd5b600660008373ffffffffffffffffffffffffffffffffffffffff1673ffffffffffffffffffffffffffffffffffffffff1681526020019081526020016000206040518060600160405290816000820160009054906101000a900460ff161515151581526020016000820160019054906101000a900460ff161515151581526020016001820154815250509050919050565b606060058081111561176e5761176d61252e565b5b600460009054906101000a900460ff1660058111156117905761178f61252e565b5b146117d0576040517f08c379a00000000000000000000000000000000000000000000000000000000081526004016117c790612e29565b60405180910390fd5b6002805480602002602001604051908101604052809291908181526020016000905b828210156118c0578382906000526020600020906002020160405180604001604052908160008201805461182590612dab565b80601f016020809104026020016040519081016040528092919081815260200182805461185190612dab565b801561189e5780601f106118735761010080835404028352916020019161189e565b820191906000526020600020905b81548152906001019060200180831161188157829003601f168201915b50505050508152602001600182015481525050815260200190600101906117f2565b50505050905090565b6118d1611e58565b73ffffffffffffffffffffffffffffffffffffffff166118ef610f35565b73ffffffffffffffffffffffffffffffffffffffff1614611945576040517f08c379a000000000000000000000000000000000000000000000000000000000815260040161193c90612ca1565b60405180910390fd5b600260058111156119595761195861252e565b5b600460009054906101000a900460ff16600581111561197b5761197a61252e565b5b146119bb576040517f08c379a00000000000000000000000000000000000000000000000000000000081526004016119b290612fdf565b60405180910390fd5b6003600460006101000a81548160ff021916908360058111156119e1576119e061252e565b5b02179055507f0a97a4ee45751e2abf3e4fc8946939630b11b371ea8ae39ccdc3056e98f5cc3f60026003604051611a19929190612d53565b60405180910390a1565b611a2b611e58565b73ffffffffffffffffffffffffffffffffffffffff16611a49610f35565b73ffffffffffffffffffffffffffffffffffffffff1614611a9f576040517f08c379a0000000000000000000000000000000000000000000000000000000008152600401611a9690612ca1565b60405180910390fd5b600073ffffffffffffffffffffffffffffffffffffffff168173ffffffffffffffffffffffffffffffffffffffff161415611b0f576040517f08c379a0000000000000000000000000000000000000000000000000000000008152600401611b0690613071565b60405180910390fd5b611b1881611e60565b50565b611b23611e58565b73ffffffffffffffffffffffffffffffffffffffff16611b41610f35565b73ffffffffffffffffffffffffffffffffffffffff1614611b97576040517f08c379a0000000000000000000000000000000000000000000000000000000008152600401611b8e90612ca1565b60405180910390fd5b60006005811115611bab57611baa61252e565b5b600460009054906101000a900460ff166005811115611bcd57611bcc61252e565b5b14611c0d576040517f08c379a0000000000000000000000000000000000000000000000000000000008152600401611c0490613103565b60405180910390fd5b60011515600660008373ffffffffffffffffffffffffffffffffffffffff1673ffffffffffffffffffffffffffffffffffffffff16815260200190815260200160002060000160009054906101000a900460ff1615151415611ca4576040517f08c379a0000000000000000000000000000000000000000000000000000000008152600401611c9b9061316f565b60405180910390fd5b6007819080600181540180825580915050600190039060005260206000200160009091909190916101000a81548173ffffffffffffffffffffffffffffffffffffffff021916908373ffffffffffffffffffffffffffffffffffffffff1602179055506001600660008373ffffffffffffffffffffffffffffffffffffffff1673ffffffffffffffffffffffffffffffffffffffff16815260200190815260200160002060000160006101000a81548160ff0219169083151502179055507fb6be2187d059cc2a55fe29e0e503b566e1e0f8c8780096e185429350acffd3dd81604051611d9191906124b4565b60405180910390a150565b60058181548110611dac57600080fd5b9060005260206000209060020201600091509050806000018054611dcf90612dab565b80601f0160208091040260200160405190810160405280929190818152602001828054611dfb90612dab565b8015611e485780601f10611e1d57610100808354040283529160200191611e48565b820191906000526020600020905b815481529060010190602001808311611e2b57829003601f168201915b5050505050908060010154905082565b600033905090565b60008060009054906101000a900473ffffffffffffffffffffffffffffffffffffffff169050816000806101000a81548173ffffffffffffffffffffffffffffffffffffffff021916908373ffffffffffffffffffffffffffffffffffffffff1602179055508173ffffffffffffffffffffffffffffffffffffffff168173ffffffffffffffffffffffffffffffffffffffff167f8be0079c531659141344cd1fd0a4f28419497f9722a3daafe3b4186f6b6457e060405160405180910390a35050565b604051806040016040528060608152602001600081525090565b828054611f4a90612dab565b90600052602060002090601f016020900481019282611f6c5760008555611fb3565b82601f10611f8557805160ff1916838001178555611fb3565b82800160010185558215611fb3579182015b82811115611fb2578251825591602001919060010190611f97565b5b509050611fc09190612098565b5090565b6040518060a00160405280600590602082028036833780820191505090505090565b828054611ff290612dab565b90600052602060002090601f0160209004810192826120145760008555612062565b82601f106120255780548555612062565b8280016001018555821561206257600052602060002091601f016020900482015b82811115612061578254825591600101919060010190612046565b5b50905061206f9190612098565b5090565b6040518060600160405280600015158152602001600015158152602001600081525090565b5b808211156120b1576000816000905550600101612099565b5090565b6000604051905090565b600080fd5b600080fd5b6000819050919050565b6120dc816120c9565b81146120e757600080fd5b50565b6000813590506120f9816120d3565b92915050565b600060208284031215612115576121146120bf565b5b6000612123848285016120ea565b91505092915050565b600080fd5b600080fd5b6000601f19601f8301169050919050565b7f4e487b7100000000000000000000000000000000000000000000000000000000600052604160045260246000fd5b61217f82612136565b810181811067ffffffffffffffff8211171561219e5761219d612147565b5b80604052505050565b60006121b16120b5565b90506121bd8282612176565b919050565b600067ffffffffffffffff8211156121dd576121dc612147565b5b6121e682612136565b9050602081019050919050565b82818337600083830152505050565b6000612215612210846121c2565b6121a7565b90508281526020810184848401111561223157612230612131565b5b61223c8482856121f3565b509392505050565b600082601f8301126122595761225861212c565b5b8135612269848260208601612202565b91505092915050565b600060208284031215612288576122876120bf565b5b600082013567ffffffffffffffff8111156122a6576122a56120c4565b5b6122b284828501612244565b91505092915050565b600081519050919050565b600082825260208201905092915050565b6000819050602082019050919050565b600081519050919050565b600082825260208201905092915050565b60005b83811015612321578082015181840152602081019050612306565b83811115612330576000848401525b50505050565b6000612341826122e7565b61234b81856122f2565b935061235b818560208601612303565b61236481612136565b840191505092915050565b612378816120c9565b82525050565b6000604083016000830151848203600086015261239b8282612336565b91505060208301516123b0602086018261236f565b508091505092915050565b60006123c7838361237e565b905092915050565b6000602082019050919050565b60006123e7826122bb565b6123f181856122c6565b935083602082028501612403856122d7565b8060005b8581101561243f578484038952815161242085826123bb565b945061242b836123cf565b925060208a01995050600181019050612407565b50829750879550505050505092915050565b6000602082019050818103600083015261246b81846123dc565b905092915050565b600073ffffffffffffffffffffffffffffffffffffffff82169050919050565b600061249e82612473565b9050919050565b6124ae81612493565b82525050565b60006020820190506124c960008301846124a5565b92915050565b600060408301600083015184820360008601526124ec8282612336565b9150506020830151612501602086018261236f565b508091505092915050565b6000602082019050818103600083015261252681846124cf565b905092915050565b7f4e487b7100000000000000000000000000000000000000000000000000000000600052602160045260246000fd5b6006811061256e5761256d61252e565b5b50565b600081905061257f8261255d565b919050565b600061258f82612571565b9050919050565b61259f81612584565b82525050565b60006020820190506125ba6000830184612596565b92915050565b600081519050919050565b600082825260208201905092915050565b6000819050602082019050919050565b6125f581612493565b82525050565b600061260783836125ec565b60208301905092915050565b6000602082019050919050565b600061262b826125c0565b61263581856125cb565b9350612640836125dc565b8060005b8381101561267157815161265888826125fb565b975061266383612613565b925050600181019050612644565b5085935050505092915050565b600060208201905081810360008301526126988184612620565b905092915050565b6126a981612493565b81146126b457600080fd5b50565b6000813590506126c6816126a0565b92915050565b6000602082840312156126e2576126e16120bf565b5b60006126f0848285016126b7565b91505092915050565b60008115159050919050565b61270e816126f9565b82525050565b60608201600082015161272a6000850182612705565b50602082015161273d6020850182612705565b506040820151612750604085018261236f565b50505050565b600060608201905061276b6000830184612714565b92915050565b600082825260208201905092915050565b600061278d826122e7565b6127978185612771565b93506127a7818560208601612303565b6127b081612136565b840191505092915050565b6127c4816120c9565b82525050565b600060408201905081810360008301526127e48185612782565b90506127f360208301846127bb565b9392505050565b7f596f75277265206e6f74206120766f7465720000000000000000000000000000600082015250565b6000612830601283612771565b915061283b826127fa565b602082019050919050565b6000602082019050818103600083015261285f81612823565b9050919050565b7f566f74696e672073657373696f6e20686176656e74207374617274656420796560008201527f7400000000000000000000000000000000000000000000000000000000000000602082015250565b60006128c2602183612771565b91506128cd82612866565b604082019050919050565b600060208201905081810360008301526128f1816128b5565b9050919050565b7f596f75206861766520616c726561647920766f74656400000000000000000000600082015250565b600061292e601683612771565b9150612939826128f8565b602082019050919050565b6000602082019050818103600083015261295d81612921565b9050919050565b7f50726f706f73616c206e6f7420666f756e640000000000000000000000000000600082015250565b600061299a601283612771565b91506129a582612964565b602082019050919050565b600060208201905081810360008301526129c98161298d565b9050919050565b7f4e487b7100000000000000000000000000000000000000000000000000000000600052603260045260246000fd5b7f4e487b7100000000000000000000000000000000000000000000000000000000600052601160045260246000fd5b6000612a39826120c9565b91507fffffffffffffffffffffffffffffffffffffffffffffffffffffffffffffffff821415612a6c57612a6b6129ff565b5b600182019050919050565b6000604082019050612a8c60008301856124a5565b612a9960208301846127bb565b9392505050565b7f50726f706f73616c7320617265206e6f7420616c6c6f77656420796574000000600082015250565b6000612ad6601d83612771565b9150612ae182612aa0565b602082019050919050565b60006020820190508181036000830152612b0581612ac9565b9050919050565b50565b6000612b1c600083612771565b9150612b2782612b0c565b600082019050919050565b60006020820190508181036000830152612b4b81612b0f565b9050919050565b60006020820190508181036000830152612b6c8184612782565b905092915050565b7f566f7573206e6520706f7576657a20706173206e65207269656e2070726f706f60008201527f7365720000000000000000000000000000000000000000000000000000000000602082015250565b6000612bd0602383612771565b9150612bdb82612b74565b604082019050919050565b60006020820190508181036000830152612bff81612bc3565b9050919050565b6000612c11826120c9565b9150612c1c836120c9565b925082821015612c2f57612c2e6129ff565b5b828203905092915050565b6000602082019050612c4f60008301846127bb565b92915050565b7f4f776e61626c653a2063616c6c6572206973206e6f7420746865206f776e6572600082015250565b6000612c8b602083612771565b9150612c9682612c55565b602082019050919050565b60006020820190508181036000830152612cba81612c7e565b9050919050565b7f43757272656e7420737461747573206973206e6f7420766f74696e672073657360008201527f73696f6e20656e64656400000000000000000000000000000000000000000000602082015250565b6000612d1d602a83612771565b9150612d2882612cc1565b604082019050919050565b60006020820190508181036000830152612d4c81612d10565b9050919050565b6000604082019050612d686000830185612596565b612d756020830184612596565b9392505050565b7f4e487b7100000000000000000000000000000000000000000000000000000000600052602260045260246000fd5b60006002820490506001821680612dc357607f821691505b60208210811415612dd757612dd6612d7c565b5b50919050565b7f566f74657320617265206e6f742074616c6c6965642079657400000000000000600082015250565b6000612e13601983612771565b9150612e1e82612ddd565b602082019050919050565b60006020820190508181036000830152612e4281612e06565b9050919050565b7f5265676973746572696e672070726f706f73616c732063616e7420626520737460008201527f6172746564206e6f770000000000000000000000000000000000000000000000602082015250565b6000612ea5602983612771565b9150612eb082612e49565b604082019050919050565b60006020820190508181036000830152612ed481612e98565b9050919050565b7f5265676973746572696e672070726f706f73616c7320686176656e742073746160008201527f7274656420796574000000000000000000000000000000000000000000000000602082015250565b6000612f37602883612771565b9150612f4282612edb565b604082019050919050565b60006020820190508181036000830152612f6681612f2a565b9050919050565b7f5265676973746572696e672070726f706f73616c73207068617365206973206e60008201527f6f742066696e6973686564000000000000000000000000000000000000000000602082015250565b6000612fc9602b83612771565b9150612fd482612f6d565b604082019050919050565b60006020820190508181036000830152612ff881612fbc565b9050919050565b7f4f776e61626c653a206e6577206f776e657220697320746865207a65726f206160008201527f6464726573730000000000000000000000000000000000000000000000000000602082015250565b600061305b602683612771565b915061306682612fff565b604082019050919050565b6000602082019050818103600083015261308a8161304e565b9050919050565b7f566f7465727320726567697374726174696f6e206973206e6f74206f70656e2060008201527f7965740000000000000000000000000000000000000000000000000000000000602082015250565b60006130ed602383612771565b91506130f882613091565b604082019050919050565b6000602082019050818103600083015261311c816130e0565b9050919050565b7f416c726561647920726567697374657265640000000000000000000000000000600082015250565b6000613159601283612771565b915061316482613123565b602082019050919050565b600060208201905081810360008301526131888161314c565b905091905056fea264697066735822122089f9bfb18e966f9e61f4b69851b0a975a2a2b785d281c0ca2d0af197666dcaf364736f6c63430008090033",
  "immutableReferences": {},
  "source": "// SPDX-License-Identifier: MIT\n\npragma solidity ^0.8.7;\nimport \"@openzeppelin/contracts/access/Ownable.sol\";\n\n/**  \n* @title A voting contract\n* @author Liam Coyle\n* @notice You can use this contract for only one vote\n*/\n\ncontract Voting is Ownable {\n\n    // arrays for draw, uint for single\n    uint[] winningProposalsID;\n    Proposal[] winningProposals;\n    \n    uint winningProposalID;\n    \n    struct Voter {\n        bool isRegistered;\n        bool hasVoted;\n        uint votedProposalId;\n    }\n\n    struct Proposal {\n        string description;\n        uint voteCount;\n    }\n\n    enum  WorkflowStatus {\n        RegisteringVoters,\n        ProposalsRegistrationStarted,\n        ProposalsRegistrationEnded,\n        VotingSessionStarted,\n        VotingSessionEnded,\n        VotesTallied\n    }\n\n    WorkflowStatus public workflowStatus;\n    Proposal[] public proposalsArray;\n    mapping (address => Voter) private voters;\n    address[] private whitelistArray;\n\n    /**\n    * @notice voter is registered\n    * @param voterAddress adress of voter\n    */\n    event VoterRegistered(address voterAddress); \n\n    \n    event WorkflowStatusChange(WorkflowStatus previousStatus, WorkflowStatus newStatus);\n    event ProposalRegistered(uint proposalId);\n    event Voted (address voter, uint proposalId);\n\n    modifier onlyVoters() {\n        require(voters[msg.sender].isRegistered, \"You're not a voter\");\n        _;\n    }\n    \n    // on peut faire un modifier pour les tats\n\n    // ::::::::::::: GETTERS ::::::::::::: //\n\n    /**\n     * @dev get voter\n     * @param _addr adress of voter\n     * @return voter by adress\n     */\n    function getVoter(address _addr) external onlyVoters view returns (Voter memory) {\n        return voters[_addr];\n    }\n\n    /**\n     * @dev get proposal by index\n     * @return a Proposal\n     */\n    function getOneProposal(uint _id) external view returns (Proposal memory) {\n        return proposalsArray[_id];\n    }\n\n    /**\n     * @dev get all porposals\n     * @return Proposals\n     */\n    function getProposals() external view returns (Proposal[] memory) {\n        return proposalsArray;\n    }\n\n    /**\n     * @notice Permet de rcuprer la liste des voter.\n     */\n    function getWhitelist() external view returns (address[] memory){\n        return whitelistArray;\n    }\n\n    // ne pas tester\n    function getWinners() external view returns (Proposal[] memory) {\n        require(workflowStatus == WorkflowStatus.VotesTallied, 'Votes are not tallied yet');\n        return winningProposals; // return proposalsArray[winningProposalID];\n    }\n\n    /**\n     * @dev get winner\n     * @return winning Proposal\n     */\n    function getWinner() external view returns (Proposal memory) {\n        require(workflowStatus == WorkflowStatus.VotesTallied, 'Votes are not tallied yet');\n        return proposalsArray[winningProposalID];\n    }\n \n    // ::::::::::::: REGISTRATION ::::::::::::: // \n\n    /**\n     * @dev add a new Voter\n     * @param _addr adrress of voter\n     */\n\n    function addVoter(address _addr) external onlyOwner {\n        require(workflowStatus == WorkflowStatus.RegisteringVoters, 'Voters registration is not open yet');\n        require(voters[_addr].isRegistered != true, 'Already registered');\n        whitelistArray.push(_addr);\n        voters[_addr].isRegistered = true;\n\n        emit VoterRegistered(_addr);\n    }\n \n    /* facultatif\n     * function deleteVoter(address _addr) external onlyOwner {\n     *   require(workflowStatus == WorkflowStatus.RegisteringVoters, 'Voters registration is not open yet');\n     *   require(voters[_addr].isRegistered == true, 'Not registered.');\n     *   voters[_addr].isRegistered = false;\n     *  emit VoterRegistered(_addr);\n    }*/\n\n    // ::::::::::::: PROPOSAL ::::::::::::: // \n\n    /**\n     * @dev add a new Proposal\n     * @param _desc description of voter\n     */\n\n    function addProposal(string memory _desc) external onlyVoters {\n        require(workflowStatus == WorkflowStatus.ProposalsRegistrationStarted, 'Proposals are not allowed yet');\n        require(keccak256(abi.encode(_desc)) != keccak256(abi.encode(\"\")), 'Vous ne pouvez pas ne rien proposer'); // facultatif\n        // voir que desc est different des autres\n\n        Proposal memory proposal;\n        proposal.description = _desc;\n        proposalsArray.push(proposal);\n        emit ProposalRegistered(proposalsArray.length-1);\n    }\n\n    // ::::::::::::: VOTE ::::::::::::: //\n\n\n\n    /**\n     * @dev vote for a proposal, emit Voted\n     * @param _id id of proposal\n     */\n\n    function setVote( uint _id) external onlyVoters {\n        require(workflowStatus == WorkflowStatus.VotingSessionStarted, 'Voting session havent started yet');\n        require(voters[msg.sender].hasVoted != true, 'You have already voted');\n        require(_id <= proposalsArray.length, 'Proposal not found'); // pas oblig, et pas besoin du >0 car uint\n\n        voters[msg.sender].votedProposalId = _id;\n        voters[msg.sender].hasVoted = true;\n        proposalsArray[_id].voteCount++;\n\n        emit Voted(msg.sender, _id);\n    }\n\n    // ::::::::::::: STATE ::::::::::::: //\n\n    /* on pourrait factoriser tout a: par exemple:\n    *  function setWorkflowStatus(WorkflowStatus _num) public onlyOwner {\n    *    WorkflowStatus pnum = workflowStatus;\n    *    workflowStatus = _num;\n    *    emit WorkflowStatusChange(pnum, workflowStatus);\n        } */ \n\n\n    function startProposalsRegistering() external onlyOwner {\n        require(workflowStatus == WorkflowStatus.RegisteringVoters, 'Registering proposals cant be started now');\n        workflowStatus = WorkflowStatus.ProposalsRegistrationStarted;\n        emit WorkflowStatusChange(WorkflowStatus.RegisteringVoters, WorkflowStatus.ProposalsRegistrationStarted);\n    }\n\n    function endProposalsRegistering() external onlyOwner {\n        require(workflowStatus == WorkflowStatus.ProposalsRegistrationStarted, 'Registering proposals havent started yet');\n        workflowStatus = WorkflowStatus.ProposalsRegistrationEnded;\n        emit WorkflowStatusChange(WorkflowStatus.ProposalsRegistrationStarted, WorkflowStatus.ProposalsRegistrationEnded);\n    }\n\n    function startVotingSession() external onlyOwner {\n        require(workflowStatus == WorkflowStatus.ProposalsRegistrationEnded, 'Registering proposals phase is not finished');\n        workflowStatus = WorkflowStatus.VotingSessionStarted;\n        emit WorkflowStatusChange(WorkflowStatus.ProposalsRegistrationEnded, WorkflowStatus.VotingSessionStarted);\n    }\n\n    function endVotingSession() external onlyOwner {\n        require(workflowStatus == WorkflowStatus.VotingSessionStarted, 'Voting session havent started yet');\n        workflowStatus = WorkflowStatus.VotingSessionEnded;\n        emit WorkflowStatusChange(WorkflowStatus.VotingSessionStarted, WorkflowStatus.VotingSessionEnded);\n    }\n\n    // ne pas tester\n    function tallyVotesDraw() external onlyOwner {\n       require(workflowStatus == WorkflowStatus.VotingSessionEnded, \"Current status is not voting session ended\");\n        uint highestCount;\n        uint[5] memory winners; // egalite entre 5 proposals max\n        uint nbWinners;\n        for (uint i = 0; i < proposalsArray.length; i++) {\n            if (nbWinners<5){\n                if (proposalsArray[i].voteCount == highestCount) {\n                    winners[nbWinners]=i;\n                    nbWinners++;\n                }\n                if (proposalsArray[i].voteCount > highestCount) {\n                    delete winners;\n                    winners[0]= i;\n                    highestCount = proposalsArray[i].voteCount;\n                    nbWinners=1;\n                }\n            }\n        }\n        for(uint j=0;j<nbWinners;j++){\n            winningProposalsID.push(winners[j]);\n            winningProposals.push(proposalsArray[winners[j]]);\n        }\n        workflowStatus = WorkflowStatus.VotesTallied;\n        emit WorkflowStatusChange(WorkflowStatus.VotingSessionEnded, WorkflowStatus.VotesTallied);\n    }\n\n    /**\n     * @dev count the votes, sets the winning id in _winningProposalId\n     */\n    function tallyVotes() external onlyOwner {\n        require(workflowStatus == WorkflowStatus.VotingSessionEnded, \"Current status is not voting session ended\");\n        uint _winningProposalId;\n        for (uint256 p = 0; p < proposalsArray.length; p++) {\n            if (proposalsArray[p].voteCount > proposalsArray[_winningProposalId].voteCount) {\n                _winningProposalId = p;\n            }\n        }\n        winningProposalID = _winningProposalId;\n        workflowStatus = WorkflowStatus.VotesTallied;\n        emit WorkflowStatusChange(WorkflowStatus.VotingSessionEnded, WorkflowStatus.VotesTallied);\n    }\n}",
  "sourcePath": "F:\\workspace\\alyra\\react-vote\\contracts\\Voting.sol",
  "compiler": {
    "name": "solc",
    "version": "0.8.9+commit.e5eed63a.Emscripten.clang"
  },
  "schemaVersion": "3.4.3",
  "updatedAt": "2021-11-30T00:53:39.654Z",
  "networkType": "ethereum",
  "devdoc": {
    "author": "Liam Coyle",
    "events": {
      "VoterRegistered(address)": {
        "params": {
          "voterAddress": "adress of voter"
        }
      }
    },
    "kind": "dev",
    "methods": {
      "addProposal(string)": {
        "details": "add a new Proposal",
        "params": {
          "_desc": "description of voter"
        }
      },
      "addVoter(address)": {
        "details": "add a new Voter",
        "params": {
          "_addr": "adrress of voter"
        }
      },
      "getOneProposal(uint256)": {
        "details": "get proposal by index",
        "returns": {
          "_0": "a Proposal"
        }
      },
      "getProposals()": {
        "details": "get all porposals",
        "returns": {
          "_0": "Proposals"
        }
      },
      "getVoter(address)": {
        "details": "get voter",
        "params": {
          "_addr": "adress of voter"
        },
        "returns": {
          "_0": "voter by adress"
        }
      },
      "getWinner()": {
        "details": "get winner",
        "returns": {
          "_0": "winning Proposal"
        }
      },
      "owner()": {
        "details": "Returns the address of the current owner."
      },
      "renounceOwnership()": {
        "details": "Leaves the contract without owner. It will not be possible to call `onlyOwner` functions anymore. Can only be called by the current owner. NOTE: Renouncing ownership will leave the contract without an owner, thereby removing any functionality that is only available to the owner."
      },
      "setVote(uint256)": {
        "details": "vote for a proposal, emit Voted",
        "params": {
          "_id": "id of proposal"
        }
      },
      "tallyVotes()": {
        "details": "count the votes, sets the winning id in _winningProposalId"
      },
      "transferOwnership(address)": {
        "details": "Transfers ownership of the contract to a new account (`newOwner`). Can only be called by the current owner."
      }
    },
    "title": "A voting contract",
    "version": 1
  },
  "userdoc": {
    "events": {
      "VoterRegistered(address)": {
        "notice": "voter is registered"
      }
    },
    "kind": "user",
    "methods": {
      "getWhitelist()": {
        "notice": "Permet de rcuprer la liste des voter."
      }
    },
    "notice": "You can use this contract for only one vote",
    "version": 1
  }
}